:100000000C9434000C9440000C9452000C943E006C
:100010000C943E000C943E000C943E000C943E0068
:100020000C943E000C943E000C943E000C943E0058
:100030000C943E000C943E000C943E000C943E0048
:100040000C943E000C943E000C943E000C943E0038
:100050000C943E000C943E000C943E000C943E0028
:100060000C943E000C943E0011241FBECFEFD8E04C
:10007000DEBFCDBF0E946F000C947F000C94000087
:100080001F920F920FB60F9211248F939F9395B1E9
:1000900080E2892785B99F918F910F900FBE0F90B5
:1000A0001F9018951F920F920FB60F9211242F9345
:1000B0008F939F9395B180E2892785B92FEF83ECC9
:1000C00099E0215080409040E1F700C000009F91EE
:1000D0008F912F910F900FBE0F901F9018951AB807
:1000E0008FEF8BB980E284B98FED85B91092C10092
:1000F00082E08093690083E08DBB7894FFCFF89411
:02010000FFCF2F
:00000001FF
