:100000000C9434000C9449000C9449000C94490061
:100010000C9449000C9449000C9449000C9449003C
:100020000C9449000C9449000C9449000C9449002C
:100030000C9449000C9449000C9449000C9449001C
:100040000C9449000C9449000C9449000C9449000C
:100050000C9449000C9449000C9449000C944900FC
:100060000C9449000C94490011241FBECFEFD8E036
:10007000DEBFCDBF11E0A0E0B1E0E4E4F1E002C0FA
:1000800005900D92A431B107D9F70E9479000C9424
:10009000A0000C9400008BB188608BB98BB1877F76
:1000A0008BB908958BB184608BB98BB18B7F8BB981
:1000B00008950F931F93CF93DF938C01C0E0D0E09E
:1000C0000EC007FF04C08BB180618BB903C08BB138
:1000D0008F7E8BB90E945200000F111F2196C830ED
:1000E000D1057CF30E944B00DF91CF911F910F91BE
:1000F00008958AB188608AB98AB180618AB98AB163
:1001000084608AB987E087B986E088B9C0E0D0E02A
:1001100013C0FE01EE0FFF1FE050FF4F8081918161
:100120000E9459002FEF89E698E1215080409040CD
:10013000E1F700C000002196CA30D10554F3E4CFA6
:04014000F894FFCF61
:100144003F0006005B004F0066006D007D00070065
:040154007F006F00B9
:00000001FF
