S01B0000436F6D70757461646F725F64655F426F72646F2E737265636E
S11300000C9461000C947E000C947E000C947E0091
S11300100C947E000C947E000C947E000C947E0064
S11300200C947E000C947E000C947E000C947E0054
S11300300C947E000C947E000C947E000C947E0044
S11300400C947E000C947E000C947E000C947E0034
S11300500C947E000C947E000C947E000C947E0024
S11300600C947E000C947E0008000000BE9224498B
S1130070123EABAAAA2ABECDCCCC4C3E00000080D6
S1130080BEABAAAAAA3E00000000BF000000803F49
S11300900000000000084178D3BB4387D1133D1909
S11300A00E3CC3BD4282AD2B3E68EC8276BED98F36
S11300B0E1A93E4C80EFFFBE01C4FF7F3F0000007A
S11300C0000011241FBECFEFD8E0DEBFCDBF11E08A
S11300D0A0E0B1E0E0E3FAE002C005900D92AA329C
S11300E0B107D9F721E0AAE2B1E001C01D92AC3218
S11300F0B207E1F70E940B010C9416050C94000062
S113010087E880937A0081E090E090932B018093BC
S11301102A010895805C80937C0080912A0190914B
S11301202B01892B49F0EAE7F0E080818064808329
S113013010922B0110922A0180917A0086FD0BC047
S113014081E090E090932B0180932A0180917800C4
S113015090917900089508950E948A00BC01990F36
S1130160880B990B0E943F0320E030E040EA50E402
S11301700E941B0420E030EC4FE754E40E949502F7
S11301800895CF92DF92EF92FF920E94AC006B0130
S11301907C0120E030E44CE156E40E941B049B0106
S11301A0AC0160E070E583E497E40E942802A701B3
S11301B096010E9495022CEF38ED42ED5BE30E941C
S11301C095020E94D3039B01AC0165E674ED84E8BB
S11301D095E40E94950223E333E948E853E40E943E
S11301E02802FF90EF90DF90CF900895CF92DF9296
S11301F0EF92FF926A017B010E94AC009B01AC016B
S11302000E942902A70196010E942802FF90EF9004
S1130210DF90CF900895CF93DF93CDB7DEB7AB9740
S11302200FB6F894DEBF0FBECDBF0E94800080E8F9
S113023095E20E9469018FE0E0E0F1E0DE011196B1
S113024001900D928A95E1F78DE0EFE0F1E0DE0197
S11302505D9601900D928A95E1F78DE0ECE1F1E075
S1130260DE01509601900D928A95E1F78AE090E0C4
S11302709BA78AA781E00E94AC006B017C01CE01A0
S113028001960E94880183E00E94C1000E94F80147
S1130290CE014D960E948801C701B6010E94F80163
S11302A0CE0140960E948801B701A60186E00E9413
S11302B0F6000E94F801CE018A960E9488012FEF71
S11302C083ED90E3215080409040E1F700C00000AE
S11302D0B2CF9C0140E050E060E472E48FE090E033
S11302E00E94D104215031093093C5002093C400E9
S11302F01092C00088E18093C10086E08093C20020
S113030008959091C00095FFFCCF8093C600089596
S1130310CF93DF93EC0103C00E9481012196888171
S11303208111FACFDF91CF9108951F93CF93DF937B
S1130330CDB7DEB728970FB6F894DEBF0FBECDBF9A
S1130340AC0180E008C0E1E0F0E0EC0FFD1FE80F35
S1130350F11D10828F5F8830B0F310E09A01ADEC8C
S1130360BCEC0E94F304969587959695879596958F
S113037087959C01220F331F880F991F880F991F9F
S1130380880F991F820F931F9A01281B390BC901EB
S1130390E1E0F0E0EC0FFD1FE10FF11D805D8083D3
S11303A09A010E94F304AC015695479556954795DA
S11303B0569547951F5F4115510581F60DC0E12FF4
S11303C0F0E0319781E090E08C0F9D1FE80FF91F5A
S11303D080810E94810111501111F1CF28960FB62E
S11303E0F894DEBF0FBECDBFDF91CF911F9108956A
S11303F08F929F92AF92BF92CF92DF92EF92FF9231
S11304006B017C010E9407034B015C0120E030E09A
S113041048EC52E4C701B6010E941B040E94070382
S1130420CB0164E670E00E94BD047C01C4010E941B
S113043095018EE20E948101C7010E949501FF90FF
S1130440EF90DF90CF90BF90AF909F908F900895E2
S11304505058BB27AA270E9440020C9491030E9483
S1130460830338F00E948A0320F039F49F3F19F483
S113047026F40C9480030EF4E095E7FB0C947A03C5
S1130480E92F0E94A20358F3BA176207730784077F
S1130490950720F079F4A6F50C94C4030EF4E095C6
S11304A00B2EBA2FA02D0B01B90190010C01CA012A
S11304B0A0011124FF27591B99F0593F50F4503ED5
S11304C068F11A16F040A22F232F342F4427585FC7
S11304D0F3CF469537952795A795F0405395C9F7DF
S11304E07EF41F16BA0B620B730B840BBAF0915097
S11304F0A1F0FF0FBB1F661F771F881FC2F70EC036
S1130500BA0F621F731F841F48F487957795679508
S1130510B795F7959E3F08F0B0CF9395880F08F0F4
S11305209927EE0F9795879508950E94A9020C9438
S113053091030E948A0358F00E94830340F029F437
S11305405F3F29F00C947A0351110C94C5030C9469
S113055080030E94A20368F39923B1F3552391F316
S1130560951B550BBB27AA2762177307840738F01E
S11305709F5F5F4F220F331F441FAA1FA9F335D07B
S11305800E2E3AF0E0E832D091505040E695001C2F
S1130590CAF72BD0FE2F29D0660F771F881FBB1FE9
S11305A0261737074807AB07B0E809F0BB0B802DC7
S11305B0BF01FF2793585F4F3AF09E3F510578F0F3
S11305C00C947A030C94C5035F3FE4F3983ED4F390
S11305D0869577956795B795F7959F5FC9F7880FC7
S11305E0911D9695879597F90895E1E0660F771F19
S11305F0881FBB1F621773078407BA0720F0621BAA
S1130600730B840BBA0BEE1F88F7E09508950E94D4
S11306100E036894B1110C94C50308950E94AA03B3
S113062088F09F5798F0B92F9927B751B0F0E1F0AF
S1130630660F771F881F991F1AF0BA95C9F714C05F
S1130640B13091F00E94C403B1E008950C94C40346
S1130650672F782F8827B85F39F0B93FCCF3869598
S113066077956795B395D9F73EF4909580957095F5
S113067061957F4F8F4F9F4F0895E89409C097FB72
S11306803EF490958095709561957F4F8F4F9F4F65
S11306909923A9F0F92F96E9BB279395F6958795A9
S11306A077956795B795F111F8CFFAF4BB0F11F46C
S11306B060FF1BC06F5F7F4F8F4F9F4F16C0882313
S11306C011F096E911C0772321F09EE8872F762F49
S11306D005C0662371F096E8862F70E060E02AF08A
S11306E09A95660F771F881FDAF7880F9695879576
S11306F097F9089597F99F6780E870E060E008959E
S11307009FEF80EC089500240A9416161706180625
S11307100906089500240A94121613061406050601
S11307200895092E0394000C11F4882352F0BB0F92
S113073040F4BF2B11F460FF04C06F5F7F4F8F4FF5
S11307409F4F089557FD9058440F551F59F05F3F30
S113075071F04795880F97FB991F61F09F3F79F0DF
S113076087950895121613061406551FF2CF469561
S1130770F1DF08C0161617061806991FF1CF8695E3
S11307807105610508940895E894BB2766277727C7
S1130790CB0197F9089516F00C9488040C94800307
S11307A068940C947A030E94AA03A8F39923C1F3D2
S11307B0AEF3DF93CF931F930F93FF92C92FDD27DF
S11307C088232AF02197660F771F881FDAF720E025
S11307D030E040E85FEB9FE3883920F0803E38F05A
S11307E021968F770E942902E8E6F0E004C00E9477
S11307F02902E5E9F0E00E9496048B01BE01EC01B8
S1130800FB2E6F5771097595771F880B990B0E9402
S11308103F0328E132E741E35FE30E942E04AF2D5A
S11308209801AE01FF900F911F91CF91DF910E942B
S113083040020C9491030E942E040C9491030E9494
S1130840830338F00E948A0320F0952311F00C945E
S11308507A030C94800311240C94C5030E94A20310
S113086070F3959FC1F3950F50E0551F629FF001FF
S1130870729FBB27F00DB11D639FAA27F00DB11D18
S1130880AA1F649F6627B00DA11D661F829F2227A1
S1130890B00DA11D621F739FB00DA11D621F839F28
S11308A0A00D611D221F749F3327A00D611D231FFE
S11308B0849F600D211D822F762F6A2F11249F574C
S11308C050409AF0F1F088234AF0EE0FFF1FBB1F4F
S11308D0661F771F881F91505040A9F79E3F51050E
S11308E080F00C947A030C94C5035F3FE4F3983EC4
S11308F0D4F3869577956795B795F795E7959F5FB8
S1130900C1F7FE2B880F911D9695879597F9089549
S11309109F3F31F0915020F4879577956795B7956F
S1130920880F911D9695879597F90895DF93CF9336
S11309301F930F93FF92EF92DF927B018C016894D7
S113094006C0DA2EEF010E942E04FE01E894A59160
S11309502591359145915591A6F3EF010E944002EE
S1130960FE019701A801DA9469F7DF90EF90FF90F8
S11309700F911F91CF91DF91089597FB072E16F4E5
S1130980009407D077FD09D00E94020507FC05D02A
S11309903EF4909581959F4F0895709561957F4F92
S11309A00895A1E21A2EAA1BBB1BFD010DC0AA1FAC
S11309B0BB1FEE1FFF1FA217B307E407F50720F0C4
S11309C0A21BB30BE40BF50B661F771F881F991F3F
S11309D01A9469F760957095809590959B01AC0188
S11309E0BD01CF010895A29FB001B39FC001A39F91
S11309F0700D811D1124911DB29F700D811D112454
S1130A00911D0895AA1BBB1B51E107C0AA1FBB1F60
S1130A10A617B70710F0A61BB70B881F991F5A9586
S1130A20A9F780959095BC01CD010895F894FFCF66
S1130A3054656D70657261747572613A20200009A5
S1130A4042617465726961313A202000094261741F
S10D0A5065726961323A202000004B
S9030000FC
