:100000000C9434000C943E000C943E000C943E0082
:100010000C944E000C943E000C943E000C943E0058
:100020000C943E000C943E000C943E000C943E0058
:100030000C943E000C943E000C943E000C943E0048
:100040000C943E000C943E000C943E000C943E0038
:100050000C943E000C943E000C943E000C943E0028
:100060000C943E000C943E0011241FBECFEFD8E04C
:10007000DEBFCDBF0E9440000C947A000C940000BB
:1000800017B88FEF88B990EE9AB98BB982E0809358
:10009000680087E080936C007894FFCF1F920F92E6
:1000A0000FB60F9211242F938F939F932FEF80E71A
:1000B00092E0215080409040E1F700C0000030996C
:1000C00005C09BB180E289278BB90CC0319905C06E
:1000D0009BB180E489278BB905C0329903C08BB1ED
:1000E00080588BB99F918F912F910F900FBE0F90D9
:0800F0001F901895F894FFCF52
:00000001FF
