S02300005265675F6465736C6F63616D656E746F5F736E373468633539356E2E73726563FF
S11300000C9434000C9449000C9449000C9449005D
S11300100C9449000C9449000C9449000C94490038
S11300200C9449000C9449000C9449000C94490028
S11300300C9449000C9449000C9449000C94490018
S11300400C9449000C9449000C9449000C94490008
S11300500C9449000C9449000C9449000C944900F8
S11300600C9449000C94490011241FBECFEFD8E032
S1130070DEBFCDBF11E0A0E0B1E0ECE6F1E002C0EC
S113008005900D92A031B107D9F70E949C000C9401
S1130090B4000C94000085B1806285B985B18F7D70
S11300A085B9089585B1806185B985B18F7E85B99B
S11300B00895EF92FF921F93CF93DF93CDB7DEB7EE
S11300C060970FB6F894DEBF0FBECDBF7C0180E110
S11300D0E0E0F1E0DE01119601900D928A95E1F7DE
S11300E010E01AC0E1E0F0E0EC0FFD1FEE0DFF1D83
S11300F0808190E0012E02C0959587950A94E2F7DD
S113010080FD04C085B1886085B903C085B1877F4F
S113011085B90E944B001F5F183021F70E945200DE
S113012060960FB6F894DEBF0FBECDBFDF91CF91BE
S11301301F91FF90EF90089588E384B987EC85B907
S1130140C0E0D0E00DC0CE010E9459002FEF83ED36
S113015090E3215080409040E1F700C000002196D8
S10F0160C031D10580F3ECCFF894FFCF40
S113016CFC60DAF366B7BEE1FEF6EE3E9C7A9E8E38
S9030000FC
